{
  "address": "0x5FbDB2315678afecb367f032d93F642f64180aa3",
  "abi": [
    {
      "inputs": [],
      "stateMutability": "nonpayable",
      "type": "constructor"
    },
    {
      "inputs": [
        {
          "internalType": "uint256",
          "name": "amount",
          "type": "uint256"
        }
      ],
      "name": "addButerinsToUser",
      "outputs": [],
      "stateMutability": "nonpayable",
      "type": "function"
    },
    {
      "inputs": [
        {
          "internalType": "uint256",
          "name": "amountNakamotos",
          "type": "uint256"
        },
        {
          "internalType": "uint256",
          "name": "amountButerins",
          "type": "uint256"
        }
      ],
      "name": "addLiquidity",
      "outputs": [],
      "stateMutability": "nonpayable",
      "type": "function"
    },
    {
      "inputs": [
        {
          "internalType": "uint256",
          "name": "amount",
          "type": "uint256"
        }
      ],
      "name": "addNakamotosToUser",
      "outputs": [],
      "stateMutability": "nonpayable",
      "type": "function"
    },
    {
      "inputs": [],
      "name": "addUser",
      "outputs": [],
      "stateMutability": "nonpayable",
      "type": "function"
    },
    {
      "inputs": [
        {
          "internalType": "address",
          "name": "",
          "type": "address"
        },
        {
          "internalType": "string",
          "name": "",
          "type": "string"
        }
      ],
      "name": "balance",
      "outputs": [
        {
          "internalType": "uint256",
          "name": "",
          "type": "uint256"
        }
      ],
      "stateMutability": "view",
      "type": "function"
    },
    {
      "inputs": [
        {
          "internalType": "int256",
          "name": "amount",
          "type": "int256"
        },
        {
          "internalType": "string",
          "name": "tokenTrading",
          "type": "string"
        }
      ],
      "name": "calculateReturn",
      "outputs": [
        {
          "internalType": "int256",
          "name": "",
          "type": "int256"
        }
      ],
      "stateMutability": "view",
      "type": "function"
    },
    {
      "inputs": [],
      "name": "getButerins",
      "outputs": [
        {
          "internalType": "uint256",
          "name": "",
          "type": "uint256"
        }
      ],
      "stateMutability": "view",
      "type": "function"
    },
    {
      "inputs": [],
      "name": "getNakamotos",
      "outputs": [
        {
          "internalType": "uint256",
          "name": "",
          "type": "uint256"
        }
      ],
      "stateMutability": "view",
      "type": "function"
    },
    {
      "inputs": [],
      "name": "getUserButerinBalance",
      "outputs": [
        {
          "internalType": "uint256",
          "name": "",
          "type": "uint256"
        }
      ],
      "stateMutability": "view",
      "type": "function"
    },
    {
      "inputs": [],
      "name": "getUserNakamotosBalance",
      "outputs": [
        {
          "internalType": "uint256",
          "name": "",
          "type": "uint256"
        }
      ],
      "stateMutability": "view",
      "type": "function"
    },
    {
      "inputs": [
        {
          "internalType": "string",
          "name": "",
          "type": "string"
        }
      ],
      "name": "liquidityPool",
      "outputs": [
        {
          "internalType": "uint256",
          "name": "",
          "type": "uint256"
        }
      ],
      "stateMutability": "view",
      "type": "function"
    },
    {
      "inputs": [],
      "name": "reset",
      "outputs": [],
      "stateMutability": "nonpayable",
      "type": "function"
    },
    {
      "inputs": [
        {
          "internalType": "int256",
          "name": "amount",
          "type": "int256"
        }
      ],
      "name": "swapButerins",
      "outputs": [
        {
          "internalType": "int256",
          "name": "",
          "type": "int256"
        }
      ],
      "stateMutability": "nonpayable",
      "type": "function"
    },
    {
      "inputs": [
        {
          "internalType": "int256",
          "name": "amount",
          "type": "int256"
        }
      ],
      "name": "swapNakamotos",
      "outputs": [
        {
          "internalType": "int256",
          "name": "",
          "type": "int256"
        }
      ],
      "stateMutability": "nonpayable",
      "type": "function"
    }
  ],
  "transactionHash": "0xbca9ceccc0cffaeb9f6c9e4086e2d8de430c3eab13a50bda761ac3196b229371",
  "args": [],
  "numDeployments": 1,
  "solcInputHash": "d1725a8bc808a3ee81eb847a998e467b",
  "bytecode": "0x60806040523480156200001157600080fd5b50600660016040516200002490620000bb565b90815260200160405180910390208190555060026001604051620000489062000122565b90815260200160405180910390208190555062000139565b600081905092915050565b7f4275746572696e73000000000000000000000000000000000000000000000000600082015250565b6000620000a360088362000060565b9150620000b0826200006b565b600882019050919050565b6000620000c88262000094565b9150819050919050565b7f4e616b616d6f746f730000000000000000000000000000000000000000000000600082015250565b60006200010a60098362000060565b91506200011782620000d2565b600982019050919050565b60006200012f82620000fb565b9150819050919050565b6118f180620001496000396000f3fe608060405234801561001057600080fd5b50600436106100ea5760003560e01c80639a1adf891161008c578063d6b31eaf11610066578063d6b31eaf14610237578063d826f88f14610267578063e565ae3314610271578063f8f44b561461028f576100ea565b80639a1adf89146101bb5780639cd441da146101eb578063a800ddfd14610207576100ea565b806353c8ec0e116100c857806353c8ec0e146101455780636758a41a14610163578063801db70b1461018157806393351f1e1461019d576100ea565b806316cadeab146100ef578063455c928c1461011f5780634834fcf514610129575b600080fd5b610109600480360381019061010491906110ff565b6102bf565b6040516101169190611174565b60405180910390f35b6101276102fa565b005b610143600480360381019061013e91906111bb565b61043c565b005b61014d6104d0565b60405161015a9190611174565b60405180910390f35b61016b6104f4565b6040516101789190611174565b60405180910390f35b61019b600480360381019061019691906111bb565b610576565b005b6101a561060a565b6040516101b29190611174565b60405180910390f35b6101d560048036038101906101d0919061121e565b61068c565b6040516101e29190611289565b60405180910390f35b610205600480360381019061020091906112a4565b610821565b005b610221600480360381019061021c91906112e4565b61088b565b60405161022e9190611174565b60405180910390f35b610251600480360381019061024c919061132d565b6108b9565b60405161025e9190611289565b60405180910390f35b61026f610b4b565b005b610279610c91565b6040516102869190611174565b60405180910390f35b6102a960048036038101906102a4919061132d565b610cb5565b6040516102b69190611289565b60405180910390f35b600260205281600052604060002081805160208101820180518482526020830160208501208183528095505050505050600091509150505481565b336000806101000a81548173ffffffffffffffffffffffffffffffffffffffff021916908373ffffffffffffffffffffffffffffffffffffffff160217905550600a600260008060009054906101000a900473ffffffffffffffffffffffffffffffffffffffff1673ffffffffffffffffffffffffffffffffffffffff1673ffffffffffffffffffffffffffffffffffffffff1681526020019081526020016000206040516103a8906113b1565b908152602001604051809103902081905550600a600260008060009054906101000a900473ffffffffffffffffffffffffffffffffffffffff1673ffffffffffffffffffffffffffffffffffffffff1673ffffffffffffffffffffffffffffffffffffffff16815260200190815260200160002060405161042890611412565b908152602001604051809103902081905550565b80600260008060009054906101000a900473ffffffffffffffffffffffffffffffffffffffff1673ffffffffffffffffffffffffffffffffffffffff1673ffffffffffffffffffffffffffffffffffffffff1681526020019081526020016000206040516104a990611412565b908152602001604051809103902060008282546104c69190611456565b9250508190555050565b600060016040516104e0906113b1565b908152602001604051809103902054905090565b6000600260008060009054906101000a900473ffffffffffffffffffffffffffffffffffffffff1673ffffffffffffffffffffffffffffffffffffffff1673ffffffffffffffffffffffffffffffffffffffff168152602001908152602001600020604051610562906113b1565b908152602001604051809103902054905090565b80600260008060009054906101000a900473ffffffffffffffffffffffffffffffffffffffff1673ffffffffffffffffffffffffffffffffffffffff1673ffffffffffffffffffffffffffffffffffffffff1681526020019081526020016000206040516105e3906113b1565b908152602001604051809103902060008282546106009190611456565b9250508190555050565b6000600260008060009054906101000a900473ffffffffffffffffffffffffffffffffffffffff1673ffffffffffffffffffffffffffffffffffffffff1673ffffffffffffffffffffffffffffffffffffffff16815260200190815260200160002060405161067890611412565b908152602001604051809103902054905090565b6000806000600160405161069f906113b1565b9081526020016040518091039020549050600060016040516106c090611412565b9081526020016040518091039020549050600082905060008290506040516020016106ea90611412565b6040516020818303038152906040528051906020012087604051602001610711919061151b565b6040516020818303038152906040528051906020012014156107a25787816107399190611532565b8289836107469190611532565b61075091906115c6565b828461075c91906115c6565b61076691906116dd565b61077091906117a0565b7fffffffffffffffffffffffffffffffffffffffffffffffffffffffffffffffff61079b91906115c6565b9450610813565b87826107ae9190611532565b8189846107bb9190611532565b6107c591906115c6565b82846107d191906115c6565b6107db91906116dd565b6107e591906117a0565b7fffffffffffffffffffffffffffffffffffffffffffffffffffffffffffffffff61081091906115c6565b94505b849550505050505092915050565b81600160405161083090611412565b9081526020016040518091039020600082825461084d9190611456565b92505081905550806001604051610863906113b1565b908152602001604051809103902060008282546108809190611456565b925050819055505050565b6001818051602081018201805184825260208301602085012081835280955050505050506000915090505481565b60008082600260008060009054906101000a900473ffffffffffffffffffffffffffffffffffffffff1673ffffffffffffffffffffffffffffffffffffffff1673ffffffffffffffffffffffffffffffffffffffff168152602001908152602001600020604051610929906113b1565b9081526020016040518091039020541015610979576040517f08c379a000000000000000000000000000000000000000000000000000000000815260040161097090611867565b60405180910390fd5b6109b8836040518060400160405280600881526020017f4275746572696e7300000000000000000000000000000000000000000000000081525061068c565b905082600260008060009054906101000a900473ffffffffffffffffffffffffffffffffffffffff1673ffffffffffffffffffffffffffffffffffffffff1673ffffffffffffffffffffffffffffffffffffffff168152602001908152602001600020604051610a27906113b1565b90815260200160405180910390206000828254610a449190611887565b9250508190555080600260008060009054906101000a900473ffffffffffffffffffffffffffffffffffffffff1673ffffffffffffffffffffffffffffffffffffffff1673ffffffffffffffffffffffffffffffffffffffff168152602001908152602001600020604051610ab890611412565b90815260200160405180910390206000828254610ad59190611456565b92505081905550826001604051610aeb906113b1565b90815260200160405180910390206000828254610b089190611456565b92505081905550806001604051610b1e90611412565b90815260200160405180910390206000828254610b3b9190611887565b9250508190555080915050919050565b60066001604051610b5b906113b1565b90815260200160405180910390208190555060026001604051610b7d90611412565b908152602001604051809103902081905550600a600260008060009054906101000a900473ffffffffffffffffffffffffffffffffffffffff1673ffffffffffffffffffffffffffffffffffffffff1673ffffffffffffffffffffffffffffffffffffffff168152602001908152602001600020604051610bfd906113b1565b908152602001604051809103902081905550600a600260008060009054906101000a900473ffffffffffffffffffffffffffffffffffffffff1673ffffffffffffffffffffffffffffffffffffffff1673ffffffffffffffffffffffffffffffffffffffff168152602001908152602001600020604051610c7d90611412565b908152602001604051809103902081905550565b60006001604051610ca190611412565b908152602001604051809103902054905090565b60008082600260008060009054906101000a900473ffffffffffffffffffffffffffffffffffffffff1673ffffffffffffffffffffffffffffffffffffffff1673ffffffffffffffffffffffffffffffffffffffff168152602001908152602001600020604051610d2590611412565b9081526020016040518091039020541015610d75576040517f08c379a0000000000000000000000000000000000000000000000000000000008152600401610d6c90611867565b60405180910390fd5b610db4836040518060400160405280600981526020017f4e616b616d6f746f73000000000000000000000000000000000000000000000081525061068c565b905082600260008060009054906101000a900473ffffffffffffffffffffffffffffffffffffffff1673ffffffffffffffffffffffffffffffffffffffff1673ffffffffffffffffffffffffffffffffffffffff168152602001908152602001600020604051610e2390611412565b90815260200160405180910390206000828254610e409190611887565b9250508190555080600260008060009054906101000a900473ffffffffffffffffffffffffffffffffffffffff1673ffffffffffffffffffffffffffffffffffffffff1673ffffffffffffffffffffffffffffffffffffffff168152602001908152602001600020604051610eb4906113b1565b90815260200160405180910390206000828254610ed19190611456565b92505081905550826001604051610ee790611412565b90815260200160405180910390206000828254610f049190611456565b92505081905550806001604051610f1a906113b1565b90815260200160405180910390206000828254610f379190611887565b9250508190555080915050919050565b6000604051905090565b600080fd5b600080fd5b600073ffffffffffffffffffffffffffffffffffffffff82169050919050565b6000610f8682610f5b565b9050919050565b610f9681610f7b565b8114610fa157600080fd5b50565b600081359050610fb381610f8d565b92915050565b600080fd5b600080fd5b6000601f19601f8301169050919050565b7f4e487b7100000000000000000000000000000000000000000000000000000000600052604160045260246000fd5b61100c82610fc3565b810181811067ffffffffffffffff8211171561102b5761102a610fd4565b5b80604052505050565b600061103e610f47565b905061104a8282611003565b919050565b600067ffffffffffffffff82111561106a57611069610fd4565b5b61107382610fc3565b9050602081019050919050565b82818337600083830152505050565b60006110a261109d8461104f565b611034565b9050828152602081018484840111156110be576110bd610fbe565b5b6110c9848285611080565b509392505050565b600082601f8301126110e6576110e5610fb9565b5b81356110f684826020860161108f565b91505092915050565b6000806040838503121561111657611115610f51565b5b600061112485828601610fa4565b925050602083013567ffffffffffffffff81111561114557611144610f56565b5b611151858286016110d1565b9150509250929050565b6000819050919050565b61116e8161115b565b82525050565b60006020820190506111896000830184611165565b92915050565b6111988161115b565b81146111a357600080fd5b50565b6000813590506111b58161118f565b92915050565b6000602082840312156111d1576111d0610f51565b5b60006111df848285016111a6565b91505092915050565b6000819050919050565b6111fb816111e8565b811461120657600080fd5b50565b600081359050611218816111f2565b92915050565b6000806040838503121561123557611234610f51565b5b600061124385828601611209565b925050602083013567ffffffffffffffff81111561126457611263610f56565b5b611270858286016110d1565b9150509250929050565b611283816111e8565b82525050565b600060208201905061129e600083018461127a565b92915050565b600080604083850312156112bb576112ba610f51565b5b60006112c9858286016111a6565b92505060206112da858286016111a6565b9150509250929050565b6000602082840312156112fa576112f9610f51565b5b600082013567ffffffffffffffff81111561131857611317610f56565b5b611324848285016110d1565b91505092915050565b60006020828403121561134357611342610f51565b5b600061135184828501611209565b91505092915050565b600081905092915050565b7f4275746572696e73000000000000000000000000000000000000000000000000600082015250565b600061139b60088361135a565b91506113a682611365565b600882019050919050565b60006113bc8261138e565b9150819050919050565b7f4e616b616d6f746f730000000000000000000000000000000000000000000000600082015250565b60006113fc60098361135a565b9150611407826113c6565b600982019050919050565b600061141d826113ef565b9150819050919050565b7f4e487b7100000000000000000000000000000000000000000000000000000000600052601160045260246000fd5b60006114618261115b565b915061146c8361115b565b9250827fffffffffffffffffffffffffffffffffffffffffffffffffffffffffffffffff038211156114a1576114a0611427565b5b828201905092915050565b600081519050919050565b60005b838110156114d55780820151818401526020810190506114ba565b838111156114e4576000848401525b50505050565b60006114f5826114ac565b6114ff818561135a565b935061150f8185602086016114b7565b80840191505092915050565b600061152782846114ea565b915081905092915050565b600061153d826111e8565b9150611548836111e8565b9250817f7fffffffffffffffffffffffffffffffffffffffffffffffffffffffffffffff0383136000831215161561158357611582611427565b5b817f80000000000000000000000000000000000000000000000000000000000000000383126000831216156115bb576115ba611427565b5b828201905092915050565b60006115d1826111e8565b91506115dc836111e8565b9250827f7fffffffffffffffffffffffffffffffffffffffffffffffffffffffffffffff048211600084136000841316161561161b5761161a611427565b5b817f8000000000000000000000000000000000000000000000000000000000000000058312600084126000841316161561165857611657611427565b5b827f8000000000000000000000000000000000000000000000000000000000000000058212600084136000841216161561169557611694611427565b5b827f7fffffffffffffffffffffffffffffffffffffffffffffffffffffffffffffff05821260008412600084121616156116d2576116d1611427565b5b828202905092915050565b60006116e8826111e8565b91506116f3836111e8565b9250827f80000000000000000000000000000000000000000000000000000000000000000182126000841215161561172e5761172d611427565b5b827f7fffffffffffffffffffffffffffffffffffffffffffffffffffffffffffffff01821360008412161561176657611765611427565b5b828203905092915050565b7f4e487b7100000000000000000000000000000000000000000000000000000000600052601260045260246000fd5b60006117ab826111e8565b91506117b6836111e8565b9250826117c6576117c5611771565b5b600160000383147f8000000000000000000000000000000000000000000000000000000000000000831416156117ff576117fe611427565b5b828205905092915050565b600082825260208201905092915050565b7f4e6f7420656e6f7567682066756e647321000000000000000000000000000000600082015250565b600061185160118361180a565b915061185c8261181b565b602082019050919050565b6000602082019050818103600083015261188081611844565b9050919050565b60006118928261115b565b915061189d8361115b565b9250828210156118b0576118af611427565b5b82820390509291505056fea26469706673582212208c922b47116fcbbd1e7b9ae8232c060f0ea10ec80738750b70d80b271250cf7a64736f6c63430008080033",
  "devdoc": {
    "kind": "dev",
    "methods": {},
    "version": 1
  },
  "userdoc": {
    "kind": "user",
    "methods": {},
    "version": 1
  },
  "storageLayout": {
    "storage": [
      {
        "astId": 3,
        "contract": "contracts/DexSim.sol:DexSim",
        "label": "_user",
        "offset": 0,
        "slot": "0",
        "type": "t_address"
      },
      {
        "astId": 7,
        "contract": "contracts/DexSim.sol:DexSim",
        "label": "liquidityPool",
        "offset": 0,
        "slot": "1",
        "type": "t_mapping(t_string_memory_ptr,t_uint256)"
      },
      {
        "astId": 13,
        "contract": "contracts/DexSim.sol:DexSim",
        "label": "balance",
        "offset": 0,
        "slot": "2",
        "type": "t_mapping(t_address,t_mapping(t_string_memory_ptr,t_uint256))"
      }
    ],
    "types": {
      "t_address": {
        "encoding": "inplace",
        "label": "address",
        "numberOfBytes": "20"
      },
      "t_mapping(t_address,t_mapping(t_string_memory_ptr,t_uint256))": {
        "encoding": "mapping",
        "key": "t_address",
        "label": "mapping(address => mapping(string => uint256))",
        "numberOfBytes": "32",
        "value": "t_mapping(t_string_memory_ptr,t_uint256)"
      },
      "t_mapping(t_string_memory_ptr,t_uint256)": {
        "encoding": "mapping",
        "key": "t_string_memory_ptr",
        "label": "mapping(string => uint256)",
        "numberOfBytes": "32",
        "value": "t_uint256"
      },
      "t_string_memory_ptr": {
        "encoding": "bytes",
        "label": "string",
        "numberOfBytes": "32"
      },
      "t_uint256": {
        "encoding": "inplace",
        "label": "uint256",
        "numberOfBytes": "32"
      }
    }
  }
}