{
  "address": "0x5FbDB2315678afecb367f032d93F642f64180aa3",
  "abi": [
    {
      "inputs": [],
      "stateMutability": "nonpayable",
      "type": "constructor"
    },
    {
      "anonymous": false,
      "inputs": [
        {
          "indexed": false,
          "internalType": "uint256",
          "name": "bAmount",
          "type": "uint256"
        },
        {
          "indexed": false,
          "internalType": "uint256",
          "name": "nAmount",
          "type": "uint256"
        }
      ],
      "name": "AddDexLiquidity",
      "type": "event"
    },
    {
      "anonymous": false,
      "inputs": [
        {
          "indexed": true,
          "internalType": "address",
          "name": "user",
          "type": "address"
        }
      ],
      "name": "AddUser",
      "type": "event"
    },
    {
      "anonymous": false,
      "inputs": [
        {
          "indexed": true,
          "internalType": "address",
          "name": "user",
          "type": "address"
        },
        {
          "indexed": false,
          "internalType": "uint256",
          "name": "val",
          "type": "uint256"
        }
      ],
      "name": "AddUserLiquidity",
      "type": "event"
    },
    {
      "anonymous": false,
      "inputs": [
        {
          "indexed": true,
          "internalType": "address",
          "name": "user",
          "type": "address"
        }
      ],
      "name": "Swap",
      "type": "event"
    },
    {
      "inputs": [
        {
          "internalType": "uint256",
          "name": "amount",
          "type": "uint256"
        }
      ],
      "name": "addButerinsToUser",
      "outputs": [],
      "stateMutability": "nonpayable",
      "type": "function"
    },
    {
      "inputs": [
        {
          "internalType": "uint256",
          "name": "amountNakamotos",
          "type": "uint256"
        },
        {
          "internalType": "uint256",
          "name": "amountButerins",
          "type": "uint256"
        }
      ],
      "name": "addLiquidity",
      "outputs": [],
      "stateMutability": "nonpayable",
      "type": "function"
    },
    {
      "inputs": [
        {
          "internalType": "uint256",
          "name": "amount",
          "type": "uint256"
        }
      ],
      "name": "addNakamotosToUser",
      "outputs": [],
      "stateMutability": "nonpayable",
      "type": "function"
    },
    {
      "inputs": [],
      "name": "addUser",
      "outputs": [],
      "stateMutability": "nonpayable",
      "type": "function"
    },
    {
      "inputs": [
        {
          "internalType": "address",
          "name": "",
          "type": "address"
        },
        {
          "internalType": "string",
          "name": "",
          "type": "string"
        }
      ],
      "name": "balance",
      "outputs": [
        {
          "internalType": "uint256",
          "name": "",
          "type": "uint256"
        }
      ],
      "stateMutability": "view",
      "type": "function"
    },
    {
      "inputs": [
        {
          "internalType": "int256",
          "name": "amount",
          "type": "int256"
        },
        {
          "internalType": "string",
          "name": "tokenTrading",
          "type": "string"
        }
      ],
      "name": "calculateReturn",
      "outputs": [
        {
          "internalType": "int256",
          "name": "",
          "type": "int256"
        }
      ],
      "stateMutability": "view",
      "type": "function"
    },
    {
      "inputs": [],
      "name": "getButerins",
      "outputs": [
        {
          "internalType": "uint256",
          "name": "",
          "type": "uint256"
        }
      ],
      "stateMutability": "view",
      "type": "function"
    },
    {
      "inputs": [],
      "name": "getNakamotos",
      "outputs": [
        {
          "internalType": "uint256",
          "name": "",
          "type": "uint256"
        }
      ],
      "stateMutability": "view",
      "type": "function"
    },
    {
      "inputs": [],
      "name": "getUserButerinBalance",
      "outputs": [
        {
          "internalType": "uint256",
          "name": "",
          "type": "uint256"
        }
      ],
      "stateMutability": "view",
      "type": "function"
    },
    {
      "inputs": [],
      "name": "getUserNakamotosBalance",
      "outputs": [
        {
          "internalType": "uint256",
          "name": "",
          "type": "uint256"
        }
      ],
      "stateMutability": "view",
      "type": "function"
    },
    {
      "inputs": [
        {
          "internalType": "string",
          "name": "",
          "type": "string"
        }
      ],
      "name": "liquidityPool",
      "outputs": [
        {
          "internalType": "uint256",
          "name": "",
          "type": "uint256"
        }
      ],
      "stateMutability": "view",
      "type": "function"
    },
    {
      "inputs": [],
      "name": "reset",
      "outputs": [],
      "stateMutability": "nonpayable",
      "type": "function"
    },
    {
      "inputs": [
        {
          "internalType": "int256",
          "name": "amount",
          "type": "int256"
        }
      ],
      "name": "swapButerins",
      "outputs": [
        {
          "internalType": "int256",
          "name": "",
          "type": "int256"
        }
      ],
      "stateMutability": "nonpayable",
      "type": "function"
    },
    {
      "inputs": [
        {
          "internalType": "int256",
          "name": "amount",
          "type": "int256"
        }
      ],
      "name": "swapNakamotos",
      "outputs": [
        {
          "internalType": "int256",
          "name": "",
          "type": "int256"
        }
      ],
      "stateMutability": "nonpayable",
      "type": "function"
    }
  ],
  "transactionHash": "0xba29c0f9172bea6911d538787bcb80bdcda8ed18c41d1cf7b24d28e72721e197",
  "args": [],
  "numDeployments": 1,
  "solcInputHash": "53e1e2f69f33be580375b59389d2564b",
  "bytecode": "0x60806040523480156200001157600080fd5b50600660016040516200002490620000bb565b90815260200160405180910390208190555060026001604051620000489062000122565b90815260200160405180910390208190555062000139565b600081905092915050565b7f4275746572696e73000000000000000000000000000000000000000000000000600082015250565b6000620000a360088362000060565b9150620000b0826200006b565b600882019050919050565b6000620000c88262000094565b9150819050919050565b7f4e616b616d6f746f730000000000000000000000000000000000000000000000600082015250565b60006200010a60098362000060565b91506200011782620000d2565b600982019050919050565b60006200012f82620000fb565b9150819050919050565b611b3880620001496000396000f3fe608060405234801561001057600080fd5b50600436106100ea5760003560e01c80639a1adf891161008c578063d6b31eaf11610066578063d6b31eaf14610237578063d826f88f14610267578063e565ae3314610271578063f8f44b561461028f576100ea565b80639a1adf89146101bb5780639cd441da146101eb578063a800ddfd14610207576100ea565b806353c8ec0e116100c857806353c8ec0e146101455780636758a41a14610163578063801db70b1461018157806393351f1e1461019d576100ea565b806316cadeab146100ef578063455c928c1461011f5780634834fcf514610129575b600080fd5b6101096004803603810190610104919061131d565b6102bf565b6040516101169190611392565b60405180910390f35b6101276102fa565b005b610143600480360381019061013e91906113d9565b61047f565b005b61014d610581565b60405161015a9190611392565b60405180910390f35b61016b6105a5565b6040516101789190611392565b60405180910390f35b61019b600480360381019061019691906113d9565b610627565b005b6101a5610729565b6040516101b29190611392565b60405180910390f35b6101d560048036038101906101d0919061143c565b6107ab565b6040516101e291906114a7565b60405180910390f35b610205600480360381019061020091906114c2565b610940565b005b610221600480360381019061021c9190611502565b6109e3565b60405161022e9190611392565b60405180910390f35b610251600480360381019061024c919061154b565b610a11565b60405161025e91906114a7565b60405180910390f35b61026f610d06565b005b610279610e4c565b6040516102869190611392565b60405180910390f35b6102a960048036038101906102a4919061154b565b610e70565b6040516102b691906114a7565b60405180910390f35b600260205281600052604060002081805160208101820180518482526020830160208501208183528095505050505050600091509150505481565b336000806101000a81548173ffffffffffffffffffffffffffffffffffffffff021916908373ffffffffffffffffffffffffffffffffffffffff160217905550600a600260008060009054906101000a900473ffffffffffffffffffffffffffffffffffffffff1673ffffffffffffffffffffffffffffffffffffffff1673ffffffffffffffffffffffffffffffffffffffff1681526020019081526020016000206040516103a8906115cf565b908152602001604051809103902081905550600a600260008060009054906101000a900473ffffffffffffffffffffffffffffffffffffffff1673ffffffffffffffffffffffffffffffffffffffff1673ffffffffffffffffffffffffffffffffffffffff16815260200190815260200160002060405161042890611630565b9081526020016040518091039020819055503373ffffffffffffffffffffffffffffffffffffffff167f93e8ef53fa1762269961bdc02811e560fa10787f7f2f9c13f74ddad8221614d260405160405180910390a2565b80600260008060009054906101000a900473ffffffffffffffffffffffffffffffffffffffff1673ffffffffffffffffffffffffffffffffffffffff1673ffffffffffffffffffffffffffffffffffffffff1681526020019081526020016000206040516104ec90611630565b908152602001604051809103902060008282546105099190611674565b9250508190555060008054906101000a900473ffffffffffffffffffffffffffffffffffffffff1673ffffffffffffffffffffffffffffffffffffffff167faa22da27bf1324d306b742f3e8e166a334e14dad666530b9441080ba815b75cf826040516105769190611392565b60405180910390a250565b60006001604051610591906115cf565b908152602001604051809103902054905090565b6000600260008060009054906101000a900473ffffffffffffffffffffffffffffffffffffffff1673ffffffffffffffffffffffffffffffffffffffff1673ffffffffffffffffffffffffffffffffffffffff168152602001908152602001600020604051610613906115cf565b908152602001604051809103902054905090565b80600260008060009054906101000a900473ffffffffffffffffffffffffffffffffffffffff1673ffffffffffffffffffffffffffffffffffffffff1673ffffffffffffffffffffffffffffffffffffffff168152602001908152602001600020604051610694906115cf565b908152602001604051809103902060008282546106b19190611674565b9250508190555060008054906101000a900473ffffffffffffffffffffffffffffffffffffffff1673ffffffffffffffffffffffffffffffffffffffff167faa22da27bf1324d306b742f3e8e166a334e14dad666530b9441080ba815b75cf8260405161071e9190611392565b60405180910390a250565b6000600260008060009054906101000a900473ffffffffffffffffffffffffffffffffffffffff1673ffffffffffffffffffffffffffffffffffffffff1673ffffffffffffffffffffffffffffffffffffffff16815260200190815260200160002060405161079790611630565b908152602001604051809103902054905090565b600080600060016040516107be906115cf565b9081526020016040518091039020549050600060016040516107df90611630565b90815260200160405180910390205490506000829050600082905060405160200161080990611630565b60405160208183030381529060405280519060200120876040516020016108309190611739565b6040516020818303038152906040528051906020012014156108c15787816108589190611750565b8289836108659190611750565b61086f91906117e4565b828461087b91906117e4565b61088591906118fb565b61088f91906119be565b7fffffffffffffffffffffffffffffffffffffffffffffffffffffffffffffffff6108ba91906117e4565b9450610932565b87826108cd9190611750565b8189846108da9190611750565b6108e491906117e4565b82846108f091906117e4565b6108fa91906118fb565b61090491906119be565b7fffffffffffffffffffffffffffffffffffffffffffffffffffffffffffffffff61092f91906117e4565b94505b849550505050505092915050565b81600160405161094f90611630565b9081526020016040518091039020600082825461096c9190611674565b92505081905550806001604051610982906115cf565b9081526020016040518091039020600082825461099f9190611674565b925050819055507fbe8bd848ec8c15d4c1cbfc57e23422f79d950a0e5b66c9cafeecc4bfa8f713d381836040516109d7929190611a28565b60405180910390a15050565b6001818051602081018201805184825260208301602085012081835280955050505050506000915090505481565b60008082600260008060009054906101000a900473ffffffffffffffffffffffffffffffffffffffff1673ffffffffffffffffffffffffffffffffffffffff1673ffffffffffffffffffffffffffffffffffffffff168152602001908152602001600020604051610a81906115cf565b9081526020016040518091039020541015610ad1576040517f08c379a0000000000000000000000000000000000000000000000000000000008152600401610ac890611aae565b60405180910390fd5b610b10836040518060400160405280600881526020017f4275746572696e730000000000000000000000000000000000000000000000008152506107ab565b905082600260008060009054906101000a900473ffffffffffffffffffffffffffffffffffffffff1673ffffffffffffffffffffffffffffffffffffffff1673ffffffffffffffffffffffffffffffffffffffff168152602001908152602001600020604051610b7f906115cf565b90815260200160405180910390206000828254610b9c9190611ace565b9250508190555080600260008060009054906101000a900473ffffffffffffffffffffffffffffffffffffffff1673ffffffffffffffffffffffffffffffffffffffff1673ffffffffffffffffffffffffffffffffffffffff168152602001908152602001600020604051610c1090611630565b90815260200160405180910390206000828254610c2d9190611674565b92505081905550826001604051610c43906115cf565b90815260200160405180910390206000828254610c609190611674565b92505081905550806001604051610c7690611630565b90815260200160405180910390206000828254610c939190611ace565b9250508190555060008054906101000a900473ffffffffffffffffffffffffffffffffffffffff1673ffffffffffffffffffffffffffffffffffffffff167f39fded47e0083893073674c7057018a2eeea09c81036ddad3666cdf954351f4360405160405180910390a280915050919050565b60066001604051610d16906115cf565b90815260200160405180910390208190555060026001604051610d3890611630565b908152602001604051809103902081905550600a600260008060009054906101000a900473ffffffffffffffffffffffffffffffffffffffff1673ffffffffffffffffffffffffffffffffffffffff1673ffffffffffffffffffffffffffffffffffffffff168152602001908152602001600020604051610db8906115cf565b908152602001604051809103902081905550600a600260008060009054906101000a900473ffffffffffffffffffffffffffffffffffffffff1673ffffffffffffffffffffffffffffffffffffffff1673ffffffffffffffffffffffffffffffffffffffff168152602001908152602001600020604051610e3890611630565b908152602001604051809103902081905550565b60006001604051610e5c90611630565b908152602001604051809103902054905090565b60008082600260008060009054906101000a900473ffffffffffffffffffffffffffffffffffffffff1673ffffffffffffffffffffffffffffffffffffffff1673ffffffffffffffffffffffffffffffffffffffff168152602001908152602001600020604051610ee090611630565b9081526020016040518091039020541015610f30576040517f08c379a0000000000000000000000000000000000000000000000000000000008152600401610f2790611aae565b60405180910390fd5b610f6f836040518060400160405280600981526020017f4e616b616d6f746f7300000000000000000000000000000000000000000000008152506107ab565b905082600260008060009054906101000a900473ffffffffffffffffffffffffffffffffffffffff1673ffffffffffffffffffffffffffffffffffffffff1673ffffffffffffffffffffffffffffffffffffffff168152602001908152602001600020604051610fde90611630565b90815260200160405180910390206000828254610ffb9190611ace565b9250508190555080600260008060009054906101000a900473ffffffffffffffffffffffffffffffffffffffff1673ffffffffffffffffffffffffffffffffffffffff1673ffffffffffffffffffffffffffffffffffffffff16815260200190815260200160002060405161106f906115cf565b9081526020016040518091039020600082825461108c9190611674565b925050819055508260016040516110a290611630565b908152602001604051809103902060008282546110bf9190611674565b925050819055508060016040516110d5906115cf565b908152602001604051809103902060008282546110f29190611ace565b9250508190555060008054906101000a900473ffffffffffffffffffffffffffffffffffffffff1673ffffffffffffffffffffffffffffffffffffffff167f39fded47e0083893073674c7057018a2eeea09c81036ddad3666cdf954351f4360405160405180910390a280915050919050565b6000604051905090565b600080fd5b600080fd5b600073ffffffffffffffffffffffffffffffffffffffff82169050919050565b60006111a482611179565b9050919050565b6111b481611199565b81146111bf57600080fd5b50565b6000813590506111d1816111ab565b92915050565b600080fd5b600080fd5b6000601f19601f8301169050919050565b7f4e487b7100000000000000000000000000000000000000000000000000000000600052604160045260246000fd5b61122a826111e1565b810181811067ffffffffffffffff82111715611249576112486111f2565b5b80604052505050565b600061125c611165565b90506112688282611221565b919050565b600067ffffffffffffffff821115611288576112876111f2565b5b611291826111e1565b9050602081019050919050565b82818337600083830152505050565b60006112c06112bb8461126d565b611252565b9050828152602081018484840111156112dc576112db6111dc565b5b6112e784828561129e565b509392505050565b600082601f830112611304576113036111d7565b5b81356113148482602086016112ad565b91505092915050565b600080604083850312156113345761133361116f565b5b6000611342858286016111c2565b925050602083013567ffffffffffffffff81111561136357611362611174565b5b61136f858286016112ef565b9150509250929050565b6000819050919050565b61138c81611379565b82525050565b60006020820190506113a76000830184611383565b92915050565b6113b681611379565b81146113c157600080fd5b50565b6000813590506113d3816113ad565b92915050565b6000602082840312156113ef576113ee61116f565b5b60006113fd848285016113c4565b91505092915050565b6000819050919050565b61141981611406565b811461142457600080fd5b50565b60008135905061143681611410565b92915050565b600080604083850312156114535761145261116f565b5b600061146185828601611427565b925050602083013567ffffffffffffffff81111561148257611481611174565b5b61148e858286016112ef565b9150509250929050565b6114a181611406565b82525050565b60006020820190506114bc6000830184611498565b92915050565b600080604083850312156114d9576114d861116f565b5b60006114e7858286016113c4565b92505060206114f8858286016113c4565b9150509250929050565b6000602082840312156115185761151761116f565b5b600082013567ffffffffffffffff81111561153657611535611174565b5b611542848285016112ef565b91505092915050565b6000602082840312156115615761156061116f565b5b600061156f84828501611427565b91505092915050565b600081905092915050565b7f4275746572696e73000000000000000000000000000000000000000000000000600082015250565b60006115b9600883611578565b91506115c482611583565b600882019050919050565b60006115da826115ac565b9150819050919050565b7f4e616b616d6f746f730000000000000000000000000000000000000000000000600082015250565b600061161a600983611578565b9150611625826115e4565b600982019050919050565b600061163b8261160d565b9150819050919050565b7f4e487b7100000000000000000000000000000000000000000000000000000000600052601160045260246000fd5b600061167f82611379565b915061168a83611379565b9250827fffffffffffffffffffffffffffffffffffffffffffffffffffffffffffffffff038211156116bf576116be611645565b5b828201905092915050565b600081519050919050565b60005b838110156116f35780820151818401526020810190506116d8565b83811115611702576000848401525b50505050565b6000611713826116ca565b61171d8185611578565b935061172d8185602086016116d5565b80840191505092915050565b60006117458284611708565b915081905092915050565b600061175b82611406565b915061176683611406565b9250817f7fffffffffffffffffffffffffffffffffffffffffffffffffffffffffffffff038313600083121516156117a1576117a0611645565b5b817f80000000000000000000000000000000000000000000000000000000000000000383126000831216156117d9576117d8611645565b5b828201905092915050565b60006117ef82611406565b91506117fa83611406565b9250827f7fffffffffffffffffffffffffffffffffffffffffffffffffffffffffffffff048211600084136000841316161561183957611838611645565b5b817f8000000000000000000000000000000000000000000000000000000000000000058312600084126000841316161561187657611875611645565b5b827f800000000000000000000000000000000000000000000000000000000000000005821260008413600084121616156118b3576118b2611645565b5b827f7fffffffffffffffffffffffffffffffffffffffffffffffffffffffffffffff05821260008412600084121616156118f0576118ef611645565b5b828202905092915050565b600061190682611406565b915061191183611406565b9250827f80000000000000000000000000000000000000000000000000000000000000000182126000841215161561194c5761194b611645565b5b827f7fffffffffffffffffffffffffffffffffffffffffffffffffffffffffffffff01821360008412161561198457611983611645565b5b828203905092915050565b7f4e487b7100000000000000000000000000000000000000000000000000000000600052601260045260246000fd5b60006119c982611406565b91506119d483611406565b9250826119e4576119e361198f565b5b600160000383147f800000000000000000000000000000000000000000000000000000000000000083141615611a1d57611a1c611645565b5b828205905092915050565b6000604082019050611a3d6000830185611383565b611a4a6020830184611383565b9392505050565b600082825260208201905092915050565b7f4e6f7420656e6f7567682066756e647321000000000000000000000000000000600082015250565b6000611a98601183611a51565b9150611aa382611a62565b602082019050919050565b60006020820190508181036000830152611ac781611a8b565b9050919050565b6000611ad982611379565b9150611ae483611379565b925082821015611af757611af6611645565b5b82820390509291505056fea26469706673582212207a5403603e9a42e258ce762cc9fd803c2cfc4cb96b2b5d5be3fcb7cad84c8ee864736f6c63430008080033",
  "devdoc": {
    "kind": "dev",
    "methods": {},
    "version": 1
  },
  "userdoc": {
    "kind": "user",
    "methods": {},
    "version": 1
  },
  "storageLayout": {
    "storage": [
      {
        "astId": 3,
        "contract": "contracts/DexSim.sol:DexSim",
        "label": "_user",
        "offset": 0,
        "slot": "0",
        "type": "t_address"
      },
      {
        "astId": 7,
        "contract": "contracts/DexSim.sol:DexSim",
        "label": "liquidityPool",
        "offset": 0,
        "slot": "1",
        "type": "t_mapping(t_string_memory_ptr,t_uint256)"
      },
      {
        "astId": 13,
        "contract": "contracts/DexSim.sol:DexSim",
        "label": "balance",
        "offset": 0,
        "slot": "2",
        "type": "t_mapping(t_address,t_mapping(t_string_memory_ptr,t_uint256))"
      }
    ],
    "types": {
      "t_address": {
        "encoding": "inplace",
        "label": "address",
        "numberOfBytes": "20"
      },
      "t_mapping(t_address,t_mapping(t_string_memory_ptr,t_uint256))": {
        "encoding": "mapping",
        "key": "t_address",
        "label": "mapping(address => mapping(string => uint256))",
        "numberOfBytes": "32",
        "value": "t_mapping(t_string_memory_ptr,t_uint256)"
      },
      "t_mapping(t_string_memory_ptr,t_uint256)": {
        "encoding": "mapping",
        "key": "t_string_memory_ptr",
        "label": "mapping(string => uint256)",
        "numberOfBytes": "32",
        "value": "t_uint256"
      },
      "t_string_memory_ptr": {
        "encoding": "bytes",
        "label": "string",
        "numberOfBytes": "32"
      },
      "t_uint256": {
        "encoding": "inplace",
        "label": "uint256",
        "numberOfBytes": "32"
      }
    }
  }
}