{
  "address": "0x5FbDB2315678afecb367f032d93F642f64180aa3",
  "abi": [
    {
      "inputs": [],
      "stateMutability": "nonpayable",
      "type": "constructor"
    },
    {
      "inputs": [
        {
          "internalType": "uint256",
          "name": "amountNakamotos",
          "type": "uint256"
        },
        {
          "internalType": "uint256",
          "name": "amountButerins",
          "type": "uint256"
        }
      ],
      "name": "addLiquidity",
      "outputs": [],
      "stateMutability": "nonpayable",
      "type": "function"
    },
    {
      "inputs": [
        {
          "internalType": "address",
          "name": "user",
          "type": "address"
        }
      ],
      "name": "addUser",
      "outputs": [],
      "stateMutability": "nonpayable",
      "type": "function"
    },
    {
      "inputs": [
        {
          "internalType": "int256",
          "name": "amount",
          "type": "int256"
        },
        {
          "internalType": "string",
          "name": "tokenTrading",
          "type": "string"
        }
      ],
      "name": "calculateReturn",
      "outputs": [
        {
          "internalType": "int256",
          "name": "",
          "type": "int256"
        }
      ],
      "stateMutability": "view",
      "type": "function"
    },
    {
      "inputs": [
        {
          "internalType": "string",
          "name": "tokenName",
          "type": "string"
        },
        {
          "internalType": "uint256",
          "name": "amount",
          "type": "uint256"
        }
      ],
      "name": "fundUser",
      "outputs": [],
      "stateMutability": "nonpayable",
      "type": "function"
    },
    {
      "inputs": [],
      "name": "getButerins",
      "outputs": [
        {
          "internalType": "uint256",
          "name": "",
          "type": "uint256"
        }
      ],
      "stateMutability": "view",
      "type": "function"
    },
    {
      "inputs": [],
      "name": "getNakamotos",
      "outputs": [
        {
          "internalType": "uint256",
          "name": "",
          "type": "uint256"
        }
      ],
      "stateMutability": "view",
      "type": "function"
    },
    {
      "inputs": [
        {
          "internalType": "string",
          "name": "tokenName",
          "type": "string"
        }
      ],
      "name": "getUserBalance",
      "outputs": [
        {
          "internalType": "uint256",
          "name": "",
          "type": "uint256"
        }
      ],
      "stateMutability": "view",
      "type": "function"
    },
    {
      "inputs": [],
      "name": "reset",
      "outputs": [],
      "stateMutability": "nonpayable",
      "type": "function"
    },
    {
      "inputs": [
        {
          "internalType": "string",
          "name": "tokenTrading",
          "type": "string"
        },
        {
          "internalType": "int256",
          "name": "amount",
          "type": "int256"
        }
      ],
      "name": "swap",
      "outputs": [
        {
          "internalType": "int256",
          "name": "",
          "type": "int256"
        }
      ],
      "stateMutability": "nonpayable",
      "type": "function"
    }
  ],
  "transactionHash": "0x8a4194de6e08ae2d3c48b83d091d5391f31fc987bed7bc92b611c57a329b6c78",
  "args": [],
  "numDeployments": 1,
  "solcInputHash": "c848b6a2067b7d6702c8501010f0c665",
  "bytecode": "0x60806040523480156200001157600080fd5b50600660016040516200002490620000bb565b90815260200160405180910390208190555060026001604051620000489062000122565b90815260200160405180910390208190555062000139565b600081905092915050565b7f4275746572696e73000000000000000000000000000000000000000000000000600082015250565b6000620000a360088362000060565b9150620000b0826200006b565b600882019050919050565b6000620000c88262000094565b9150819050919050565b7f4e616b616d6f746f730000000000000000000000000000000000000000000000600082015250565b60006200010a60098362000060565b91506200011782620000d2565b600982019050919050565b60006200012f82620000fb565b9150819050919050565b61158580620001496000396000f3fe608060405234801561001057600080fd5b50600436106100935760003560e01c80639a1adf89116100665780639a1adf891461011e5780639cd441da1461014e578063b4e884f31461016a578063d826f88f1461019a578063e565ae33146101a457610093565b806316a0b0f914610098578063392d85a3146100b4578063421b2d8b146100e457806353c8ec0e14610100575b600080fd5b6100b260048036038101906100ad9190610d3c565b6101c2565b005b6100ce60048036038101906100c99190610d98565b610247565b6040516100db9190610df0565b60405180910390f35b6100fe60048036038101906100f99190610e69565b6102cd565b005b610108610310565b6040516101159190610df0565b60405180910390f35b61013860048036038101906101339190610ecc565b610334565b6040516101459190610f37565b60405180910390f35b61016860048036038101906101639190610f52565b6104c9565b005b610184600480360381019061017f9190610f92565b610533565b6040516101919190610f37565b60405180910390f35b6101a2610a42565b005b6101ac610b88565b6040516101b99190610df0565b60405180910390f35b80600260008060009054906101000a900473ffffffffffffffffffffffffffffffffffffffff1673ffffffffffffffffffffffffffffffffffffffff1673ffffffffffffffffffffffffffffffffffffffff168152602001908152602001600020836040516102319190611068565b9081526020016040518091039020819055505050565b6000600260008060009054906101000a900473ffffffffffffffffffffffffffffffffffffffff1673ffffffffffffffffffffffffffffffffffffffff1673ffffffffffffffffffffffffffffffffffffffff168152602001908152602001600020826040516102b79190611068565b9081526020016040518091039020549050919050565b806000806101000a81548173ffffffffffffffffffffffffffffffffffffffff021916908373ffffffffffffffffffffffffffffffffffffffff16021790555050565b60006001604051610320906110cb565b908152602001604051809103902054905090565b60008060006001604051610347906110cb565b9081526020016040518091039020549050600060016040516103689061112c565b9081526020016040518091039020549050600082905060008290506040516020016103929061112c565b60405160208183030381529060405280519060200120876040516020016103b99190611068565b60405160208183030381529060405280519060200120141561044a5787816103e19190611170565b8289836103ee9190611170565b6103f89190611204565b82846104049190611204565b61040e919061131b565b61041891906113de565b7fffffffffffffffffffffffffffffffffffffffffffffffffffffffffffffffff6104439190611204565b94506104bb565b87826104569190611170565b8189846104639190611170565b61046d9190611204565b82846104799190611204565b610483919061131b565b61048d91906113de565b7fffffffffffffffffffffffffffffffffffffffffffffffffffffffffffffffff6104b89190611204565b94505b849550505050505092915050565b8160016040516104d89061112c565b908152602001604051809103902060008282546104f59190611448565b9250508190555080600160405161050b906110cb565b908152602001604051809103902060008282546105289190611448565b925050819055505050565b6000806040516020016105459061112c565b604051602081830303815290604052805190602001208460405160200161056c9190611068565b6040516020818303038152906040528051906020012014156107e25782600260008060009054906101000a900473ffffffffffffffffffffffffffffffffffffffff1673ffffffffffffffffffffffffffffffffffffffff1673ffffffffffffffffffffffffffffffffffffffff168152602001908152602001600020856040516105f79190611068565b9081526020016040518091039020541015610647576040517f08c379a000000000000000000000000000000000000000000000000000000000815260040161063e906114fb565b60405180910390fd5b6106518385610334565b905082600260008060009054906101000a900473ffffffffffffffffffffffffffffffffffffffff1673ffffffffffffffffffffffffffffffffffffffff1673ffffffffffffffffffffffffffffffffffffffff168152602001908152602001600020856040516106c29190611068565b908152602001604051809103902060008282546106df919061151b565b9250508190555080600260008060009054906101000a900473ffffffffffffffffffffffffffffffffffffffff1673ffffffffffffffffffffffffffffffffffffffff1673ffffffffffffffffffffffffffffffffffffffff168152602001908152602001600020604051610753906110cb565b908152602001604051809103902060008282546107709190611448565b925050819055508260016040516107869061112c565b908152602001604051809103902060008282546107a39190611448565b925050819055508060016040516107b9906110cb565b908152602001604051809103902060008282546107d6919061151b565b92505081905550610a38565b82600260008060009054906101000a900473ffffffffffffffffffffffffffffffffffffffff1673ffffffffffffffffffffffffffffffffffffffff1673ffffffffffffffffffffffffffffffffffffffff168152602001908152602001600020856040516108519190611068565b90815260200160405180910390205410156108a1576040517f08c379a0000000000000000000000000000000000000000000000000000000008152600401610898906114fb565b60405180910390fd5b6108ab8385610334565b905082600260008060009054906101000a900473ffffffffffffffffffffffffffffffffffffffff1673ffffffffffffffffffffffffffffffffffffffff1673ffffffffffffffffffffffffffffffffffffffff1681526020019081526020016000208560405161091c9190611068565b90815260200160405180910390206000828254610939919061151b565b9250508190555080600260008060009054906101000a900473ffffffffffffffffffffffffffffffffffffffff1673ffffffffffffffffffffffffffffffffffffffff1673ffffffffffffffffffffffffffffffffffffffff1681526020019081526020016000206040516109ad9061112c565b908152602001604051809103902060008282546109ca9190611448565b925050819055508260016040516109e0906110cb565b908152602001604051809103902060008282546109fd9190611448565b92505081905550806001604051610a139061112c565b90815260200160405180910390206000828254610a30919061151b565b925050819055505b8091505092915050565b60066001604051610a52906110cb565b90815260200160405180910390208190555060026001604051610a749061112c565b9081526020016040518091039020819055506000600260008060009054906101000a900473ffffffffffffffffffffffffffffffffffffffff1673ffffffffffffffffffffffffffffffffffffffff1673ffffffffffffffffffffffffffffffffffffffff168152602001908152602001600020604051610af4906110cb565b9081526020016040518091039020819055506000600260008060009054906101000a900473ffffffffffffffffffffffffffffffffffffffff1673ffffffffffffffffffffffffffffffffffffffff1673ffffffffffffffffffffffffffffffffffffffff168152602001908152602001600020604051610b749061112c565b908152602001604051809103902081905550565b60006001604051610b989061112c565b908152602001604051809103902054905090565b6000604051905090565b600080fd5b600080fd5b600080fd5b600080fd5b6000601f19601f8301169050919050565b7f4e487b7100000000000000000000000000000000000000000000000000000000600052604160045260246000fd5b610c1382610bca565b810181811067ffffffffffffffff82111715610c3257610c31610bdb565b5b80604052505050565b6000610c45610bac565b9050610c518282610c0a565b919050565b600067ffffffffffffffff821115610c7157610c70610bdb565b5b610c7a82610bca565b9050602081019050919050565b82818337600083830152505050565b6000610ca9610ca484610c56565b610c3b565b905082815260208101848484011115610cc557610cc4610bc5565b5b610cd0848285610c87565b509392505050565b600082601f830112610ced57610cec610bc0565b5b8135610cfd848260208601610c96565b91505092915050565b6000819050919050565b610d1981610d06565b8114610d2457600080fd5b50565b600081359050610d3681610d10565b92915050565b60008060408385031215610d5357610d52610bb6565b5b600083013567ffffffffffffffff811115610d7157610d70610bbb565b5b610d7d85828601610cd8565b9250506020610d8e85828601610d27565b9150509250929050565b600060208284031215610dae57610dad610bb6565b5b600082013567ffffffffffffffff811115610dcc57610dcb610bbb565b5b610dd884828501610cd8565b91505092915050565b610dea81610d06565b82525050565b6000602082019050610e056000830184610de1565b92915050565b600073ffffffffffffffffffffffffffffffffffffffff82169050919050565b6000610e3682610e0b565b9050919050565b610e4681610e2b565b8114610e5157600080fd5b50565b600081359050610e6381610e3d565b92915050565b600060208284031215610e7f57610e7e610bb6565b5b6000610e8d84828501610e54565b91505092915050565b6000819050919050565b610ea981610e96565b8114610eb457600080fd5b50565b600081359050610ec681610ea0565b92915050565b60008060408385031215610ee357610ee2610bb6565b5b6000610ef185828601610eb7565b925050602083013567ffffffffffffffff811115610f1257610f11610bbb565b5b610f1e85828601610cd8565b9150509250929050565b610f3181610e96565b82525050565b6000602082019050610f4c6000830184610f28565b92915050565b60008060408385031215610f6957610f68610bb6565b5b6000610f7785828601610d27565b9250506020610f8885828601610d27565b9150509250929050565b60008060408385031215610fa957610fa8610bb6565b5b600083013567ffffffffffffffff811115610fc757610fc6610bbb565b5b610fd385828601610cd8565b9250506020610fe485828601610eb7565b9150509250929050565b600081519050919050565b600081905092915050565b60005b83811015611022578082015181840152602081019050611007565b83811115611031576000848401525b50505050565b600061104282610fee565b61104c8185610ff9565b935061105c818560208601611004565b80840191505092915050565b60006110748284611037565b915081905092915050565b7f4275746572696e73000000000000000000000000000000000000000000000000600082015250565b60006110b5600883610ff9565b91506110c08261107f565b600882019050919050565b60006110d6826110a8565b9150819050919050565b7f4e616b616d6f746f730000000000000000000000000000000000000000000000600082015250565b6000611116600983610ff9565b9150611121826110e0565b600982019050919050565b600061113782611109565b9150819050919050565b7f4e487b7100000000000000000000000000000000000000000000000000000000600052601160045260246000fd5b600061117b82610e96565b915061118683610e96565b9250817f7fffffffffffffffffffffffffffffffffffffffffffffffffffffffffffffff038313600083121516156111c1576111c0611141565b5b817f80000000000000000000000000000000000000000000000000000000000000000383126000831216156111f9576111f8611141565b5b828201905092915050565b600061120f82610e96565b915061121a83610e96565b9250827f7fffffffffffffffffffffffffffffffffffffffffffffffffffffffffffffff048211600084136000841316161561125957611258611141565b5b817f8000000000000000000000000000000000000000000000000000000000000000058312600084126000841316161561129657611295611141565b5b827f800000000000000000000000000000000000000000000000000000000000000005821260008413600084121616156112d3576112d2611141565b5b827f7fffffffffffffffffffffffffffffffffffffffffffffffffffffffffffffff05821260008412600084121616156113105761130f611141565b5b828202905092915050565b600061132682610e96565b915061133183610e96565b9250827f80000000000000000000000000000000000000000000000000000000000000000182126000841215161561136c5761136b611141565b5b827f7fffffffffffffffffffffffffffffffffffffffffffffffffffffffffffffff0182136000841216156113a4576113a3611141565b5b828203905092915050565b7f4e487b7100000000000000000000000000000000000000000000000000000000600052601260045260246000fd5b60006113e982610e96565b91506113f483610e96565b925082611404576114036113af565b5b600160000383147f80000000000000000000000000000000000000000000000000000000000000008314161561143d5761143c611141565b5b828205905092915050565b600061145382610d06565b915061145e83610d06565b9250827fffffffffffffffffffffffffffffffffffffffffffffffffffffffffffffffff0382111561149357611492611141565b5b828201905092915050565b600082825260208201905092915050565b7f4e6f7420656e6f7567682066756e647321000000000000000000000000000000600082015250565b60006114e560118361149e565b91506114f0826114af565b602082019050919050565b60006020820190508181036000830152611514816114d8565b9050919050565b600061152682610d06565b915061153183610d06565b92508282101561154457611543611141565b5b82820390509291505056fea2646970667358221220cdfe2a66ac7f0079f5e7dbf5c646d144bd0ef223ec347338bea804947cfc6b1b64736f6c63430008080033",
  "devdoc": {
    "kind": "dev",
    "methods": {},
    "version": 1
  },
  "userdoc": {
    "kind": "user",
    "methods": {},
    "version": 1
  },
  "storageLayout": {
    "storage": [
      {
        "astId": 3,
        "contract": "contracts/DexSim.sol:DexSim",
        "label": "_user",
        "offset": 0,
        "slot": "0",
        "type": "t_address"
      },
      {
        "astId": 7,
        "contract": "contracts/DexSim.sol:DexSim",
        "label": "liquidityPool",
        "offset": 0,
        "slot": "1",
        "type": "t_mapping(t_string_memory_ptr,t_uint256)"
      },
      {
        "astId": 13,
        "contract": "contracts/DexSim.sol:DexSim",
        "label": "balance",
        "offset": 0,
        "slot": "2",
        "type": "t_mapping(t_address,t_mapping(t_string_memory_ptr,t_uint256))"
      }
    ],
    "types": {
      "t_address": {
        "encoding": "inplace",
        "label": "address",
        "numberOfBytes": "20"
      },
      "t_mapping(t_address,t_mapping(t_string_memory_ptr,t_uint256))": {
        "encoding": "mapping",
        "key": "t_address",
        "label": "mapping(address => mapping(string => uint256))",
        "numberOfBytes": "32",
        "value": "t_mapping(t_string_memory_ptr,t_uint256)"
      },
      "t_mapping(t_string_memory_ptr,t_uint256)": {
        "encoding": "mapping",
        "key": "t_string_memory_ptr",
        "label": "mapping(string => uint256)",
        "numberOfBytes": "32",
        "value": "t_uint256"
      },
      "t_string_memory_ptr": {
        "encoding": "bytes",
        "label": "string",
        "numberOfBytes": "32"
      },
      "t_uint256": {
        "encoding": "inplace",
        "label": "uint256",
        "numberOfBytes": "32"
      }
    }
  }
}