{
  "address": "0x5FbDB2315678afecb367f032d93F642f64180aa3",
  "abi": [
    {
      "inputs": [],
      "stateMutability": "nonpayable",
      "type": "constructor"
    },
    {
      "inputs": [
        {
          "internalType": "uint256",
          "name": "amountNakamotos",
          "type": "uint256"
        },
        {
          "internalType": "uint256",
          "name": "amountButerins",
          "type": "uint256"
        }
      ],
      "name": "addLiquidity",
      "outputs": [],
      "stateMutability": "nonpayable",
      "type": "function"
    },
    {
      "inputs": [
        {
          "internalType": "address",
          "name": "user",
          "type": "address"
        }
      ],
      "name": "addUser",
      "outputs": [],
      "stateMutability": "nonpayable",
      "type": "function"
    },
    {
      "inputs": [
        {
          "internalType": "int256",
          "name": "amount",
          "type": "int256"
        },
        {
          "internalType": "string",
          "name": "tokenTrading",
          "type": "string"
        }
      ],
      "name": "calculateReturn",
      "outputs": [
        {
          "internalType": "int256",
          "name": "",
          "type": "int256"
        }
      ],
      "stateMutability": "view",
      "type": "function"
    },
    {
      "inputs": [
        {
          "internalType": "string",
          "name": "tokenName",
          "type": "string"
        },
        {
          "internalType": "uint256",
          "name": "amount",
          "type": "uint256"
        }
      ],
      "name": "fundUser",
      "outputs": [],
      "stateMutability": "nonpayable",
      "type": "function"
    },
    {
      "inputs": [],
      "name": "getButerins",
      "outputs": [
        {
          "internalType": "uint256",
          "name": "",
          "type": "uint256"
        }
      ],
      "stateMutability": "view",
      "type": "function"
    },
    {
      "inputs": [],
      "name": "getNakamotos",
      "outputs": [
        {
          "internalType": "uint256",
          "name": "",
          "type": "uint256"
        }
      ],
      "stateMutability": "view",
      "type": "function"
    },
    {
      "inputs": [],
      "name": "getUser",
      "outputs": [
        {
          "internalType": "address",
          "name": "",
          "type": "address"
        }
      ],
      "stateMutability": "view",
      "type": "function"
    },
    {
      "inputs": [
        {
          "internalType": "string",
          "name": "tokenName",
          "type": "string"
        }
      ],
      "name": "getUserBalance",
      "outputs": [
        {
          "internalType": "uint256",
          "name": "",
          "type": "uint256"
        }
      ],
      "stateMutability": "view",
      "type": "function"
    },
    {
      "inputs": [],
      "name": "reset",
      "outputs": [],
      "stateMutability": "nonpayable",
      "type": "function"
    },
    {
      "inputs": [
        {
          "internalType": "string",
          "name": "tokenTrading",
          "type": "string"
        },
        {
          "internalType": "int256",
          "name": "amount",
          "type": "int256"
        }
      ],
      "name": "swap",
      "outputs": [
        {
          "internalType": "int256",
          "name": "",
          "type": "int256"
        }
      ],
      "stateMutability": "nonpayable",
      "type": "function"
    }
  ],
  "transactionHash": "0x6dc8a1c05670dd2a485ca1e095df98d17bec53cf5aa90aeb46c38a254002827b",
  "args": [],
  "numDeployments": 1,
  "solcInputHash": "cb83f0a65c32e6726c1a2479de4cad27",
  "bytecode": "0x60806040523480156200001157600080fd5b50600660016040516200002490620000bb565b90815260200160405180910390208190555060026001604051620000489062000122565b90815260200160405180910390208190555062000139565b600081905092915050565b7f4275746572696e73000000000000000000000000000000000000000000000000600082015250565b6000620000a360088362000060565b9150620000b0826200006b565b600882019050919050565b6000620000c88262000094565b9150819050919050565b7f4e616b616d6f746f730000000000000000000000000000000000000000000000600082015250565b60006200010a60098362000060565b91506200011782620000d2565b600982019050919050565b60006200012f82620000fb565b9150819050919050565b61160180620001496000396000f3fe608060405234801561001057600080fd5b506004361061009e5760003560e01c80639a1adf89116100665780639a1adf89146101475780639cd441da14610177578063b4e884f314610193578063d826f88f146101c3578063e565ae33146101cd5761009e565b806316a0b0f9146100a3578063392d85a3146100bf578063421b2d8b146100ef57806353c8ec0e1461010b578063832880e714610129575b600080fd5b6100bd60048036038101906100b89190610d8e565b6101eb565b005b6100d960048036038101906100d49190610dea565b610270565b6040516100e69190610e42565b60405180910390f35b61010960048036038101906101049190610ebb565b6102f6565b005b610113610339565b6040516101209190610e42565b60405180910390f35b61013161035d565b60405161013e9190610ef7565b60405180910390f35b610161600480360381019061015c9190610f48565b610386565b60405161016e9190610fb3565b60405180910390f35b610191600480360381019061018c9190610fce565b61051b565b005b6101ad60048036038101906101a8919061100e565b610585565b6040516101ba9190610fb3565b60405180910390f35b6101cb610a94565b005b6101d5610bda565b6040516101e29190610e42565b60405180910390f35b80600260008060009054906101000a900473ffffffffffffffffffffffffffffffffffffffff1673ffffffffffffffffffffffffffffffffffffffff1673ffffffffffffffffffffffffffffffffffffffff1681526020019081526020016000208360405161025a91906110e4565b9081526020016040518091039020819055505050565b6000600260008060009054906101000a900473ffffffffffffffffffffffffffffffffffffffff1673ffffffffffffffffffffffffffffffffffffffff1673ffffffffffffffffffffffffffffffffffffffff168152602001908152602001600020826040516102e091906110e4565b9081526020016040518091039020549050919050565b806000806101000a81548173ffffffffffffffffffffffffffffffffffffffff021916908373ffffffffffffffffffffffffffffffffffffffff16021790555050565b6000600160405161034990611147565b908152602001604051809103902054905090565b60008060009054906101000a900473ffffffffffffffffffffffffffffffffffffffff16905090565b6000806000600160405161039990611147565b9081526020016040518091039020549050600060016040516103ba906111a8565b9081526020016040518091039020549050600082905060008290506040516020016103e4906111a8565b604051602081830303815290604052805190602001208760405160200161040b91906110e4565b60405160208183030381529060405280519060200120141561049c57878161043391906111ec565b82898361044091906111ec565b61044a9190611280565b82846104569190611280565b6104609190611397565b61046a919061145a565b7fffffffffffffffffffffffffffffffffffffffffffffffffffffffffffffffff6104959190611280565b945061050d565b87826104a891906111ec565b8189846104b591906111ec565b6104bf9190611280565b82846104cb9190611280565b6104d59190611397565b6104df919061145a565b7fffffffffffffffffffffffffffffffffffffffffffffffffffffffffffffffff61050a9190611280565b94505b849550505050505092915050565b81600160405161052a906111a8565b9081526020016040518091039020600082825461054791906114c4565b9250508190555080600160405161055d90611147565b9081526020016040518091039020600082825461057a91906114c4565b925050819055505050565b600080604051602001610597906111a8565b60405160208183030381529060405280519060200120846040516020016105be91906110e4565b6040516020818303038152906040528051906020012014156108345782600260008060009054906101000a900473ffffffffffffffffffffffffffffffffffffffff1673ffffffffffffffffffffffffffffffffffffffff1673ffffffffffffffffffffffffffffffffffffffff1681526020019081526020016000208560405161064991906110e4565b9081526020016040518091039020541015610699576040517f08c379a000000000000000000000000000000000000000000000000000000000815260040161069090611577565b60405180910390fd5b6106a38385610386565b905082600260008060009054906101000a900473ffffffffffffffffffffffffffffffffffffffff1673ffffffffffffffffffffffffffffffffffffffff1673ffffffffffffffffffffffffffffffffffffffff1681526020019081526020016000208560405161071491906110e4565b908152602001604051809103902060008282546107319190611597565b9250508190555080600260008060009054906101000a900473ffffffffffffffffffffffffffffffffffffffff1673ffffffffffffffffffffffffffffffffffffffff1673ffffffffffffffffffffffffffffffffffffffff1681526020019081526020016000206040516107a590611147565b908152602001604051809103902060008282546107c291906114c4565b925050819055508260016040516107d8906111a8565b908152602001604051809103902060008282546107f591906114c4565b9250508190555080600160405161080b90611147565b908152602001604051809103902060008282546108289190611597565b92505081905550610a8a565b82600260008060009054906101000a900473ffffffffffffffffffffffffffffffffffffffff1673ffffffffffffffffffffffffffffffffffffffff1673ffffffffffffffffffffffffffffffffffffffff168152602001908152602001600020856040516108a391906110e4565b90815260200160405180910390205410156108f3576040517f08c379a00000000000000000000000000000000000000000000000000000000081526004016108ea90611577565b60405180910390fd5b6108fd8385610386565b905082600260008060009054906101000a900473ffffffffffffffffffffffffffffffffffffffff1673ffffffffffffffffffffffffffffffffffffffff1673ffffffffffffffffffffffffffffffffffffffff1681526020019081526020016000208560405161096e91906110e4565b9081526020016040518091039020600082825461098b9190611597565b9250508190555080600260008060009054906101000a900473ffffffffffffffffffffffffffffffffffffffff1673ffffffffffffffffffffffffffffffffffffffff1673ffffffffffffffffffffffffffffffffffffffff1681526020019081526020016000206040516109ff906111a8565b90815260200160405180910390206000828254610a1c91906114c4565b92505081905550826001604051610a3290611147565b90815260200160405180910390206000828254610a4f91906114c4565b92505081905550806001604051610a65906111a8565b90815260200160405180910390206000828254610a829190611597565b925050819055505b8091505092915050565b60066001604051610aa490611147565b90815260200160405180910390208190555060026001604051610ac6906111a8565b9081526020016040518091039020819055506000600260008060009054906101000a900473ffffffffffffffffffffffffffffffffffffffff1673ffffffffffffffffffffffffffffffffffffffff1673ffffffffffffffffffffffffffffffffffffffff168152602001908152602001600020604051610b4690611147565b9081526020016040518091039020819055506000600260008060009054906101000a900473ffffffffffffffffffffffffffffffffffffffff1673ffffffffffffffffffffffffffffffffffffffff1673ffffffffffffffffffffffffffffffffffffffff168152602001908152602001600020604051610bc6906111a8565b908152602001604051809103902081905550565b60006001604051610bea906111a8565b908152602001604051809103902054905090565b6000604051905090565b600080fd5b600080fd5b600080fd5b600080fd5b6000601f19601f8301169050919050565b7f4e487b7100000000000000000000000000000000000000000000000000000000600052604160045260246000fd5b610c6582610c1c565b810181811067ffffffffffffffff82111715610c8457610c83610c2d565b5b80604052505050565b6000610c97610bfe565b9050610ca38282610c5c565b919050565b600067ffffffffffffffff821115610cc357610cc2610c2d565b5b610ccc82610c1c565b9050602081019050919050565b82818337600083830152505050565b6000610cfb610cf684610ca8565b610c8d565b905082815260208101848484011115610d1757610d16610c17565b5b610d22848285610cd9565b509392505050565b600082601f830112610d3f57610d3e610c12565b5b8135610d4f848260208601610ce8565b91505092915050565b6000819050919050565b610d6b81610d58565b8114610d7657600080fd5b50565b600081359050610d8881610d62565b92915050565b60008060408385031215610da557610da4610c08565b5b600083013567ffffffffffffffff811115610dc357610dc2610c0d565b5b610dcf85828601610d2a565b9250506020610de085828601610d79565b9150509250929050565b600060208284031215610e0057610dff610c08565b5b600082013567ffffffffffffffff811115610e1e57610e1d610c0d565b5b610e2a84828501610d2a565b91505092915050565b610e3c81610d58565b82525050565b6000602082019050610e576000830184610e33565b92915050565b600073ffffffffffffffffffffffffffffffffffffffff82169050919050565b6000610e8882610e5d565b9050919050565b610e9881610e7d565b8114610ea357600080fd5b50565b600081359050610eb581610e8f565b92915050565b600060208284031215610ed157610ed0610c08565b5b6000610edf84828501610ea6565b91505092915050565b610ef181610e7d565b82525050565b6000602082019050610f0c6000830184610ee8565b92915050565b6000819050919050565b610f2581610f12565b8114610f3057600080fd5b50565b600081359050610f4281610f1c565b92915050565b60008060408385031215610f5f57610f5e610c08565b5b6000610f6d85828601610f33565b925050602083013567ffffffffffffffff811115610f8e57610f8d610c0d565b5b610f9a85828601610d2a565b9150509250929050565b610fad81610f12565b82525050565b6000602082019050610fc86000830184610fa4565b92915050565b60008060408385031215610fe557610fe4610c08565b5b6000610ff385828601610d79565b925050602061100485828601610d79565b9150509250929050565b6000806040838503121561102557611024610c08565b5b600083013567ffffffffffffffff81111561104357611042610c0d565b5b61104f85828601610d2a565b925050602061106085828601610f33565b9150509250929050565b600081519050919050565b600081905092915050565b60005b8381101561109e578082015181840152602081019050611083565b838111156110ad576000848401525b50505050565b60006110be8261106a565b6110c88185611075565b93506110d8818560208601611080565b80840191505092915050565b60006110f082846110b3565b915081905092915050565b7f4275746572696e73000000000000000000000000000000000000000000000000600082015250565b6000611131600883611075565b915061113c826110fb565b600882019050919050565b600061115282611124565b9150819050919050565b7f4e616b616d6f746f730000000000000000000000000000000000000000000000600082015250565b6000611192600983611075565b915061119d8261115c565b600982019050919050565b60006111b382611185565b9150819050919050565b7f4e487b7100000000000000000000000000000000000000000000000000000000600052601160045260246000fd5b60006111f782610f12565b915061120283610f12565b9250817f7fffffffffffffffffffffffffffffffffffffffffffffffffffffffffffffff0383136000831215161561123d5761123c6111bd565b5b817f8000000000000000000000000000000000000000000000000000000000000000038312600083121615611275576112746111bd565b5b828201905092915050565b600061128b82610f12565b915061129683610f12565b9250827f7fffffffffffffffffffffffffffffffffffffffffffffffffffffffffffffff04821160008413600084131616156112d5576112d46111bd565b5b817f80000000000000000000000000000000000000000000000000000000000000000583126000841260008413161615611312576113116111bd565b5b827f8000000000000000000000000000000000000000000000000000000000000000058212600084136000841216161561134f5761134e6111bd565b5b827f7fffffffffffffffffffffffffffffffffffffffffffffffffffffffffffffff058212600084126000841216161561138c5761138b6111bd565b5b828202905092915050565b60006113a282610f12565b91506113ad83610f12565b9250827f8000000000000000000000000000000000000000000000000000000000000000018212600084121516156113e8576113e76111bd565b5b827f7fffffffffffffffffffffffffffffffffffffffffffffffffffffffffffffff0182136000841216156114205761141f6111bd565b5b828203905092915050565b7f4e487b7100000000000000000000000000000000000000000000000000000000600052601260045260246000fd5b600061146582610f12565b915061147083610f12565b9250826114805761147f61142b565b5b600160000383147f8000000000000000000000000000000000000000000000000000000000000000831416156114b9576114b86111bd565b5b828205905092915050565b60006114cf82610d58565b91506114da83610d58565b9250827fffffffffffffffffffffffffffffffffffffffffffffffffffffffffffffffff0382111561150f5761150e6111bd565b5b828201905092915050565b600082825260208201905092915050565b7f4e6f7420656e6f7567682066756e647321000000000000000000000000000000600082015250565b600061156160118361151a565b915061156c8261152b565b602082019050919050565b6000602082019050818103600083015261159081611554565b9050919050565b60006115a282610d58565b91506115ad83610d58565b9250828210156115c0576115bf6111bd565b5b82820390509291505056fea26469706673582212206dac29fc490368e16db1a13102832c53e5ce12b02aef431e6ec5cc2b1896505b64736f6c63430008080033",
  "devdoc": {
    "kind": "dev",
    "methods": {},
    "version": 1
  },
  "userdoc": {
    "kind": "user",
    "methods": {},
    "version": 1
  },
  "storageLayout": {
    "storage": [
      {
        "astId": 3,
        "contract": "contracts/DexSim.sol:DexSim",
        "label": "_user",
        "offset": 0,
        "slot": "0",
        "type": "t_address"
      },
      {
        "astId": 7,
        "contract": "contracts/DexSim.sol:DexSim",
        "label": "liquidityPool",
        "offset": 0,
        "slot": "1",
        "type": "t_mapping(t_string_memory_ptr,t_uint256)"
      },
      {
        "astId": 13,
        "contract": "contracts/DexSim.sol:DexSim",
        "label": "balance",
        "offset": 0,
        "slot": "2",
        "type": "t_mapping(t_address,t_mapping(t_string_memory_ptr,t_uint256))"
      }
    ],
    "types": {
      "t_address": {
        "encoding": "inplace",
        "label": "address",
        "numberOfBytes": "20"
      },
      "t_mapping(t_address,t_mapping(t_string_memory_ptr,t_uint256))": {
        "encoding": "mapping",
        "key": "t_address",
        "label": "mapping(address => mapping(string => uint256))",
        "numberOfBytes": "32",
        "value": "t_mapping(t_string_memory_ptr,t_uint256)"
      },
      "t_mapping(t_string_memory_ptr,t_uint256)": {
        "encoding": "mapping",
        "key": "t_string_memory_ptr",
        "label": "mapping(string => uint256)",
        "numberOfBytes": "32",
        "value": "t_uint256"
      },
      "t_string_memory_ptr": {
        "encoding": "bytes",
        "label": "string",
        "numberOfBytes": "32"
      },
      "t_uint256": {
        "encoding": "inplace",
        "label": "uint256",
        "numberOfBytes": "32"
      }
    }
  }
}