{
  "address": "0xF87f86a419DfF17357eF25C0Bd53F028aC6B6E7C",
  "abi": [
    {
      "inputs": [],
      "stateMutability": "nonpayable",
      "type": "constructor"
    },
    {
      "inputs": [
        {
          "internalType": "address",
          "name": "user",
          "type": "address"
        }
      ],
      "name": "addUser",
      "outputs": [],
      "stateMutability": "nonpayable",
      "type": "function"
    },
    {
      "inputs": [
        {
          "internalType": "int256",
          "name": "amount",
          "type": "int256"
        },
        {
          "internalType": "string",
          "name": "tokenTrading",
          "type": "string"
        }
      ],
      "name": "calculateReturn",
      "outputs": [
        {
          "internalType": "int256",
          "name": "",
          "type": "int256"
        }
      ],
      "stateMutability": "view",
      "type": "function"
    },
    {
      "inputs": [
        {
          "internalType": "string",
          "name": "tokenName",
          "type": "string"
        },
        {
          "internalType": "uint256",
          "name": "amount",
          "type": "uint256"
        }
      ],
      "name": "fundUser",
      "outputs": [],
      "stateMutability": "nonpayable",
      "type": "function"
    },
    {
      "inputs": [],
      "name": "getButerins",
      "outputs": [
        {
          "internalType": "uint256",
          "name": "",
          "type": "uint256"
        }
      ],
      "stateMutability": "view",
      "type": "function"
    },
    {
      "inputs": [],
      "name": "getNakamotos",
      "outputs": [
        {
          "internalType": "uint256",
          "name": "",
          "type": "uint256"
        }
      ],
      "stateMutability": "view",
      "type": "function"
    },
    {
      "inputs": [
        {
          "internalType": "string",
          "name": "tokenName",
          "type": "string"
        }
      ],
      "name": "getUserBalance",
      "outputs": [
        {
          "internalType": "uint256",
          "name": "",
          "type": "uint256"
        }
      ],
      "stateMutability": "view",
      "type": "function"
    },
    {
      "inputs": [],
      "name": "reset",
      "outputs": [],
      "stateMutability": "nonpayable",
      "type": "function"
    },
    {
      "inputs": [
        {
          "internalType": "string",
          "name": "tokenTrading",
          "type": "string"
        },
        {
          "internalType": "int256",
          "name": "amount",
          "type": "int256"
        }
      ],
      "name": "swap",
      "outputs": [
        {
          "internalType": "int256",
          "name": "",
          "type": "int256"
        }
      ],
      "stateMutability": "nonpayable",
      "type": "function"
    }
  ],
  "transactionHash": "0xd0d73352f603244eac62f5047fae86c340ce16a03bf5efc7668bfa1b34d1d17c",
  "args": [],
  "numDeployments": 1,
  "solcInputHash": "0b3ba09a77f65f3338821cc156b11462",
  "bytecode": "0x60806040523480156200001157600080fd5b50606460016040516200002490620000bb565b908152602001604051809103902081905550600a6001604051620000489062000122565b90815260200160405180910390208190555062000139565b600081905092915050565b7f4275746572696e73000000000000000000000000000000000000000000000000600082015250565b6000620000a360088362000060565b9150620000b0826200006b565b600882019050919050565b6000620000c88262000094565b9150819050919050565b7f4e616b616d6f746f730000000000000000000000000000000000000000000000600082015250565b60006200010a60098362000060565b91506200011782620000d2565b600982019050919050565b60006200012f82620000fb565b9150819050919050565b6114b480620001496000396000f3fe608060405234801561001057600080fd5b50600436106100885760003560e01c80639a1adf891161005b5780639a1adf8914610113578063b4e884f314610143578063d826f88f14610173578063e565ae331461017d57610088565b806316a0b0f91461008d578063392d85a3146100a9578063421b2d8b146100d957806353c8ec0e146100f5575b600080fd5b6100a760048036038101906100a29190610cab565b61019b565b005b6100c360048036038101906100be9190610d07565b610220565b6040516100d09190610d5f565b60405180910390f35b6100f360048036038101906100ee9190610dd8565b6102a6565b005b6100fd6102e9565b60405161010a9190610d5f565b60405180910390f35b61012d60048036038101906101289190610e3b565b61030d565b60405161013a9190610ea6565b60405180910390f35b61015d60048036038101906101589190610ec1565b6104a2565b60405161016a9190610ea6565b60405180910390f35b61017b6109b1565b005b610185610af7565b6040516101929190610d5f565b60405180910390f35b80600260008060009054906101000a900473ffffffffffffffffffffffffffffffffffffffff1673ffffffffffffffffffffffffffffffffffffffff1673ffffffffffffffffffffffffffffffffffffffff1681526020019081526020016000208360405161020a9190610f97565b9081526020016040518091039020819055505050565b6000600260008060009054906101000a900473ffffffffffffffffffffffffffffffffffffffff1673ffffffffffffffffffffffffffffffffffffffff1673ffffffffffffffffffffffffffffffffffffffff168152602001908152602001600020826040516102909190610f97565b9081526020016040518091039020549050919050565b806000806101000a81548173ffffffffffffffffffffffffffffffffffffffff021916908373ffffffffffffffffffffffffffffffffffffffff16021790555050565b600060016040516102f990610ffa565b908152602001604051809103902054905090565b6000806000600160405161032090610ffa565b9081526020016040518091039020549050600060016040516103419061105b565b90815260200160405180910390205490506000829050600082905060405160200161036b9061105b565b60405160208183030381529060405280519060200120876040516020016103929190610f97565b6040516020818303038152906040528051906020012014156104235787816103ba919061109f565b8289836103c7919061109f565b6103d19190611133565b82846103dd9190611133565b6103e7919061124a565b6103f1919061130d565b7fffffffffffffffffffffffffffffffffffffffffffffffffffffffffffffffff61041c9190611133565b9450610494565b878261042f919061109f565b81898461043c919061109f565b6104469190611133565b82846104529190611133565b61045c919061124a565b610466919061130d565b7fffffffffffffffffffffffffffffffffffffffffffffffffffffffffffffffff6104919190611133565b94505b849550505050505092915050565b6000806040516020016104b49061105b565b60405160208183030381529060405280519060200120846040516020016104db9190610f97565b6040516020818303038152906040528051906020012014156107515782600260008060009054906101000a900473ffffffffffffffffffffffffffffffffffffffff1673ffffffffffffffffffffffffffffffffffffffff1673ffffffffffffffffffffffffffffffffffffffff168152602001908152602001600020856040516105669190610f97565b90815260200160405180910390205410156105b6576040517f08c379a00000000000000000000000000000000000000000000000000000000081526004016105ad906113d4565b60405180910390fd5b6105c0838561030d565b905082600260008060009054906101000a900473ffffffffffffffffffffffffffffffffffffffff1673ffffffffffffffffffffffffffffffffffffffff1673ffffffffffffffffffffffffffffffffffffffff168152602001908152602001600020856040516106319190610f97565b9081526020016040518091039020600082825461064e91906113f4565b9250508190555080600260008060009054906101000a900473ffffffffffffffffffffffffffffffffffffffff1673ffffffffffffffffffffffffffffffffffffffff1673ffffffffffffffffffffffffffffffffffffffff1681526020019081526020016000206040516106c290610ffa565b908152602001604051809103902060008282546106df9190611428565b925050819055508260016040516106f59061105b565b908152602001604051809103902060008282546107129190611428565b9250508190555080600160405161072890610ffa565b9081526020016040518091039020600082825461074591906113f4565b925050819055506109a7565b82600260008060009054906101000a900473ffffffffffffffffffffffffffffffffffffffff1673ffffffffffffffffffffffffffffffffffffffff1673ffffffffffffffffffffffffffffffffffffffff168152602001908152602001600020856040516107c09190610f97565b9081526020016040518091039020541015610810576040517f08c379a0000000000000000000000000000000000000000000000000000000008152600401610807906113d4565b60405180910390fd5b61081a838561030d565b905082600260008060009054906101000a900473ffffffffffffffffffffffffffffffffffffffff1673ffffffffffffffffffffffffffffffffffffffff1673ffffffffffffffffffffffffffffffffffffffff1681526020019081526020016000208560405161088b9190610f97565b908152602001604051809103902060008282546108a891906113f4565b9250508190555080600260008060009054906101000a900473ffffffffffffffffffffffffffffffffffffffff1673ffffffffffffffffffffffffffffffffffffffff1673ffffffffffffffffffffffffffffffffffffffff16815260200190815260200160002060405161091c9061105b565b908152602001604051809103902060008282546109399190611428565b9250508190555082600160405161094f90610ffa565b9081526020016040518091039020600082825461096c9190611428565b925050819055508060016040516109829061105b565b9081526020016040518091039020600082825461099f91906113f4565b925050819055505b8091505092915050565b606460016040516109c190610ffa565b908152602001604051809103902081905550600a60016040516109e39061105b565b9081526020016040518091039020819055506000600260008060009054906101000a900473ffffffffffffffffffffffffffffffffffffffff1673ffffffffffffffffffffffffffffffffffffffff1673ffffffffffffffffffffffffffffffffffffffff168152602001908152602001600020604051610a6390610ffa565b9081526020016040518091039020819055506000600260008060009054906101000a900473ffffffffffffffffffffffffffffffffffffffff1673ffffffffffffffffffffffffffffffffffffffff1673ffffffffffffffffffffffffffffffffffffffff168152602001908152602001600020604051610ae39061105b565b908152602001604051809103902081905550565b60006001604051610b079061105b565b908152602001604051809103902054905090565b6000604051905090565b600080fd5b600080fd5b600080fd5b600080fd5b6000601f19601f8301169050919050565b7f4e487b7100000000000000000000000000000000000000000000000000000000600052604160045260246000fd5b610b8282610b39565b810181811067ffffffffffffffff82111715610ba157610ba0610b4a565b5b80604052505050565b6000610bb4610b1b565b9050610bc08282610b79565b919050565b600067ffffffffffffffff821115610be057610bdf610b4a565b5b610be982610b39565b9050602081019050919050565b82818337600083830152505050565b6000610c18610c1384610bc5565b610baa565b905082815260208101848484011115610c3457610c33610b34565b5b610c3f848285610bf6565b509392505050565b600082601f830112610c5c57610c5b610b2f565b5b8135610c6c848260208601610c05565b91505092915050565b6000819050919050565b610c8881610c75565b8114610c9357600080fd5b50565b600081359050610ca581610c7f565b92915050565b60008060408385031215610cc257610cc1610b25565b5b600083013567ffffffffffffffff811115610ce057610cdf610b2a565b5b610cec85828601610c47565b9250506020610cfd85828601610c96565b9150509250929050565b600060208284031215610d1d57610d1c610b25565b5b600082013567ffffffffffffffff811115610d3b57610d3a610b2a565b5b610d4784828501610c47565b91505092915050565b610d5981610c75565b82525050565b6000602082019050610d746000830184610d50565b92915050565b600073ffffffffffffffffffffffffffffffffffffffff82169050919050565b6000610da582610d7a565b9050919050565b610db581610d9a565b8114610dc057600080fd5b50565b600081359050610dd281610dac565b92915050565b600060208284031215610dee57610ded610b25565b5b6000610dfc84828501610dc3565b91505092915050565b6000819050919050565b610e1881610e05565b8114610e2357600080fd5b50565b600081359050610e3581610e0f565b92915050565b60008060408385031215610e5257610e51610b25565b5b6000610e6085828601610e26565b925050602083013567ffffffffffffffff811115610e8157610e80610b2a565b5b610e8d85828601610c47565b9150509250929050565b610ea081610e05565b82525050565b6000602082019050610ebb6000830184610e97565b92915050565b60008060408385031215610ed857610ed7610b25565b5b600083013567ffffffffffffffff811115610ef657610ef5610b2a565b5b610f0285828601610c47565b9250506020610f1385828601610e26565b9150509250929050565b600081519050919050565b600081905092915050565b60005b83811015610f51578082015181840152602081019050610f36565b83811115610f60576000848401525b50505050565b6000610f7182610f1d565b610f7b8185610f28565b9350610f8b818560208601610f33565b80840191505092915050565b6000610fa38284610f66565b915081905092915050565b7f4275746572696e73000000000000000000000000000000000000000000000000600082015250565b6000610fe4600883610f28565b9150610fef82610fae565b600882019050919050565b600061100582610fd7565b9150819050919050565b7f4e616b616d6f746f730000000000000000000000000000000000000000000000600082015250565b6000611045600983610f28565b91506110508261100f565b600982019050919050565b600061106682611038565b9150819050919050565b7f4e487b7100000000000000000000000000000000000000000000000000000000600052601160045260246000fd5b60006110aa82610e05565b91506110b583610e05565b9250817f7fffffffffffffffffffffffffffffffffffffffffffffffffffffffffffffff038313600083121516156110f0576110ef611070565b5b817f800000000000000000000000000000000000000000000000000000000000000003831260008312161561112857611127611070565b5b828201905092915050565b600061113e82610e05565b915061114983610e05565b9250827f7fffffffffffffffffffffffffffffffffffffffffffffffffffffffffffffff048211600084136000841316161561118857611187611070565b5b817f800000000000000000000000000000000000000000000000000000000000000005831260008412600084131616156111c5576111c4611070565b5b827f8000000000000000000000000000000000000000000000000000000000000000058212600084136000841216161561120257611201611070565b5b827f7fffffffffffffffffffffffffffffffffffffffffffffffffffffffffffffff058212600084126000841216161561123f5761123e611070565b5b828202905092915050565b600061125582610e05565b915061126083610e05565b9250827f80000000000000000000000000000000000000000000000000000000000000000182126000841215161561129b5761129a611070565b5b827f7fffffffffffffffffffffffffffffffffffffffffffffffffffffffffffffff0182136000841216156112d3576112d2611070565b5b828203905092915050565b7f4e487b7100000000000000000000000000000000000000000000000000000000600052601260045260246000fd5b600061131882610e05565b915061132383610e05565b925082611333576113326112de565b5b600160000383147f80000000000000000000000000000000000000000000000000000000000000008314161561136c5761136b611070565b5b828205905092915050565b600082825260208201905092915050565b7f4e6f7420656e6f7567682066756e647321000000000000000000000000000000600082015250565b60006113be601183611377565b91506113c982611388565b602082019050919050565b600060208201905081810360008301526113ed816113b1565b9050919050565b60006113ff82610c75565b915061140a83610c75565b92508282101561141d5761141c611070565b5b828203905092915050565b600061143382610c75565b915061143e83610c75565b9250827fffffffffffffffffffffffffffffffffffffffffffffffffffffffffffffffff0382111561147357611472611070565b5b82820190509291505056fea2646970667358221220e4c73a32ded47d515b6783420db433c7084f0669e65fc62015c851705f03ef1064736f6c63430008080033",
  "devdoc": {
    "kind": "dev",
    "methods": {},
    "version": 1
  },
  "userdoc": {
    "kind": "user",
    "methods": {},
    "version": 1
  },
  "storageLayout": {
    "storage": [
      {
        "astId": 3,
        "contract": "contracts/DexSim.sol:DexSim",
        "label": "_user",
        "offset": 0,
        "slot": "0",
        "type": "t_address"
      },
      {
        "astId": 7,
        "contract": "contracts/DexSim.sol:DexSim",
        "label": "liquidityPool",
        "offset": 0,
        "slot": "1",
        "type": "t_mapping(t_string_memory_ptr,t_uint256)"
      },
      {
        "astId": 13,
        "contract": "contracts/DexSim.sol:DexSim",
        "label": "balance",
        "offset": 0,
        "slot": "2",
        "type": "t_mapping(t_address,t_mapping(t_string_memory_ptr,t_uint256))"
      }
    ],
    "types": {
      "t_address": {
        "encoding": "inplace",
        "label": "address",
        "numberOfBytes": "20"
      },
      "t_mapping(t_address,t_mapping(t_string_memory_ptr,t_uint256))": {
        "encoding": "mapping",
        "key": "t_address",
        "label": "mapping(address => mapping(string => uint256))",
        "numberOfBytes": "32",
        "value": "t_mapping(t_string_memory_ptr,t_uint256)"
      },
      "t_mapping(t_string_memory_ptr,t_uint256)": {
        "encoding": "mapping",
        "key": "t_string_memory_ptr",
        "label": "mapping(string => uint256)",
        "numberOfBytes": "32",
        "value": "t_uint256"
      },
      "t_string_memory_ptr": {
        "encoding": "bytes",
        "label": "string",
        "numberOfBytes": "32"
      },
      "t_uint256": {
        "encoding": "inplace",
        "label": "uint256",
        "numberOfBytes": "32"
      }
    }
  }
}